{
  "_format": "hh-sol-artifact-1",
  "contractName": "Auction",
  "sourceName": "contracts/auction.sol",
  "abi": [
    {
      "inputs": [
        {
          "internalType": "address",
          "name": "_token",
          "type": "address"
        }
      ],
      "stateMutability": "nonpayable",
      "type": "constructor"
    },
    {
      "anonymous": false,
      "inputs": [
        {
          "indexed": true,
          "internalType": "uint256",
          "name": "itemId",
          "type": "uint256"
        },
        {
          "indexed": false,
          "internalType": "address",
          "name": "winner",
          "type": "address"
        },
        {
          "indexed": false,
          "internalType": "uint256",
          "name": "amount",
          "type": "uint256"
        }
      ],
      "name": "AuctionEnded",
      "type": "event"
    },
    {
      "anonymous": false,
      "inputs": [
        {
          "indexed": true,
          "internalType": "uint256",
          "name": "itemId",
          "type": "uint256"
        },
        {
          "indexed": false,
          "internalType": "string",
          "name": "name",
          "type": "string"
        },
        {
          "indexed": true,
          "internalType": "address",
          "name": "seller",
          "type": "address"
        }
      ],
      "name": "ItemListed",
      "type": "event"
    },
    {
      "anonymous": false,
      "inputs": [
        {
          "indexed": true,
          "internalType": "uint256",
          "name": "itemId",
          "type": "uint256"
        },
        {
          "indexed": true,
          "internalType": "address",
          "name": "bidder",
          "type": "address"
        },
        {
          "indexed": false,
          "internalType": "uint256",
          "name": "amount",
          "type": "uint256"
        }
      ],
      "name": "NewBid",
      "type": "event"
    },
    {
      "inputs": [
        {
          "internalType": "uint256",
          "name": "_itemId",
          "type": "uint256"
        },
        {
          "internalType": "uint256",
          "name": "_amount",
          "type": "uint256"
        }
      ],
      "name": "bidERC20",
      "outputs": [],
      "stateMutability": "nonpayable",
      "type": "function"
    },
    {
      "inputs": [
        {
          "internalType": "uint256",
          "name": "_itemId",
          "type": "uint256"
        }
      ],
      "name": "bidETH",
      "outputs": [],
      "stateMutability": "payable",
      "type": "function"
    },
    {
      "inputs": [
        {
          "internalType": "uint256",
          "name": "_itemId",
          "type": "uint256"
        }
      ],
      "name": "finalizeAuction",
      "outputs": [],
      "stateMutability": "nonpayable",
      "type": "function"
    },
    {
      "inputs": [],
      "name": "getAllItems",
      "outputs": [
        {
          "components": [
            {
              "internalType": "string",
              "name": "name",
              "type": "string"
            },
            {
              "internalType": "address",
              "name": "seller",
              "type": "address"
            },
            {
              "internalType": "address",
              "name": "highestBidder",
              "type": "address"
            },
            {
              "internalType": "uint256",
              "name": "highestBid",
              "type": "uint256"
            },
            {
              "internalType": "uint256",
              "name": "endTime",
              "type": "uint256"
            },
            {
              "internalType": "bool",
              "name": "ended",
              "type": "bool"
            }
          ],
          "internalType": "struct Auction.Item[]",
          "name": "",
          "type": "tuple[]"
        }
      ],
      "stateMutability": "view",
      "type": "function"
    },
    {
      "inputs": [
        {
          "internalType": "uint256",
          "name": "_itemId",
          "type": "uint256"
        }
      ],
      "name": "getWinner",
      "outputs": [
        {
          "internalType": "address",
          "name": "",
          "type": "address"
        }
      ],
      "stateMutability": "view",
      "type": "function"
    },
    {
      "inputs": [
        {
          "internalType": "uint256",
          "name": "",
          "type": "uint256"
        }
      ],
      "name": "items",
      "outputs": [
        {
          "internalType": "string",
          "name": "name",
          "type": "string"
        },
        {
          "internalType": "address",
          "name": "seller",
          "type": "address"
        },
        {
          "internalType": "address",
          "name": "highestBidder",
          "type": "address"
        },
        {
          "internalType": "uint256",
          "name": "highestBid",
          "type": "uint256"
        },
        {
          "internalType": "uint256",
          "name": "endTime",
          "type": "uint256"
        },
        {
          "internalType": "bool",
          "name": "ended",
          "type": "bool"
        }
      ],
      "stateMutability": "view",
      "type": "function"
    },
    {
      "inputs": [
        {
          "internalType": "string",
          "name": "_name",
          "type": "string"
        }
      ],
      "name": "listItem",
      "outputs": [],
      "stateMutability": "nonpayable",
      "type": "function"
    },
    {
      "inputs": [],
      "name": "token",
      "outputs": [
        {
          "internalType": "contract IERC20",
          "name": "",
          "type": "address"
        }
      ],
      "stateMutability": "view",
      "type": "function"
    },
    {
      "inputs": [],
      "name": "totalItems",
      "outputs": [
        {
          "internalType": "uint256",
          "name": "",
          "type": "uint256"
        }
      ],
      "stateMutability": "view",
      "type": "function"
    }
  ],
  "bytecode": "0x60a060405234801561001057600080fd5b50604051611f7c380380611f7c833981810160405281019061003291906100cf565b8073ffffffffffffffffffffffffffffffffffffffff1660808173ffffffffffffffffffffffffffffffffffffffff1681525050506100fc565b600080fd5b600073ffffffffffffffffffffffffffffffffffffffff82169050919050565b600061009c82610071565b9050919050565b6100ac81610091565b81146100b757600080fd5b50565b6000815190506100c9816100a3565b92915050565b6000602082840312156100e5576100e461006c565b5b60006100f3848285016100ba565b91505092915050565b608051611e5761012560003960008181610c7901528181610da20152610edc0152611e576000f3fe6080604052600436106100865760003560e01c80638ec5baec116100595780638ec5baec1461013a578063bfb231d214610163578063e8083863146101a5578063fc0c546a146101ce578063fd3c4cbf146101f957610086565b80632799276d1461008b5780634129b2c9146100b65780634ba1d6aa146100f357806351afa3af1461011e575b600080fd5b34801561009757600080fd5b506100a0610222565b6040516100ad919061105c565b60405180910390f35b3480156100c257600080fd5b506100dd60048036038101906100d891906110ad565b61022e565b6040516100ea919061111b565b60405180910390f35b3480156100ff57600080fd5b5061010861027c565b604051610115919061134a565b60405180910390f35b610138600480360381019061013391906110ad565b610448565b005b34801561014657600080fd5b50610161600480360381019061015c91906113d1565b610718565b005b34801561016f57600080fd5b5061018a600480360381019061018591906110ad565b610932565b60405161019c96959493929190611477565b60405180910390f35b3480156101b157600080fd5b506101cc60048036038101906101c791906110ad565b610a53565b005b3480156101da57600080fd5b506101e3610c77565b6040516101f0919061153e565b60405180910390f35b34801561020557600080fd5b50610220600480360381019061021b9190611559565b610c9b565b005b60008080549050905090565b600080828154811061024357610242611599565b5b906000526020600020906006020160020160009054906101000a900473ffffffffffffffffffffffffffffffffffffffff169050919050565b60606000805480602002602001604051908101604052809291908181526020016000905b8282101561043f57838290600052602060002090600602016040518060c00160405290816000820180546102d3906115f7565b80601f01602080910402602001604051908101604052809291908181526020018280546102ff906115f7565b801561034c5780601f106103215761010080835404028352916020019161034c565b820191906000526020600020905b81548152906001019060200180831161032f57829003601f168201915b505050505081526020016001820160009054906101000a900473ffffffffffffffffffffffffffffffffffffffff1673ffffffffffffffffffffffffffffffffffffffff1673ffffffffffffffffffffffffffffffffffffffff1681526020016002820160009054906101000a900473ffffffffffffffffffffffffffffffffffffffff1673ffffffffffffffffffffffffffffffffffffffff1673ffffffffffffffffffffffffffffffffffffffff16815260200160038201548152602001600482015481526020016005820160009054906101000a900460ff161515151581525050815260200190600101906102a0565b50505050905090565b600080828154811061045d5761045c611599565b5b906000526020600020906006020190508060050160009054906101000a900460ff16156104bf576040517f08c379a00000000000000000000000000000000000000000000000000000000081526004016104b690611674565b60405180910390fd5b80600401544210610505576040517f08c379a00000000000000000000000000000000000000000000000000000000081526004016104fc906116e0565b60405180910390fd5b8060030154341161054b576040517f08c379a00000000000000000000000000000000000000000000000000000000081526004016105429061174c565b60405180910390fd5b600073ffffffffffffffffffffffffffffffffffffffff168160020160009054906101000a900473ffffffffffffffffffffffffffffffffffffffff1673ffffffffffffffffffffffffffffffffffffffff16146106795760008160020160009054906101000a900473ffffffffffffffffffffffffffffffffffffffff1673ffffffffffffffffffffffffffffffffffffffff1682600301546040516105f19061179d565b60006040518083038185875af1925050503d806000811461062e576040519150601f19603f3d011682016040523d82523d6000602084013e610633565b606091505b5050905080610677576040517f08c379a000000000000000000000000000000000000000000000000000000000815260040161066e906117fe565b60405180910390fd5b505b338160020160006101000a81548173ffffffffffffffffffffffffffffffffffffffff021916908373ffffffffffffffffffffffffffffffffffffffff1602179055503481600301819055503373ffffffffffffffffffffffffffffffffffffffff16827f558a0d5d5468d74b0db24c74eb348b42271c2ebb4c9e953ced38aaed95fa43613460405161070c919061105c565b60405180910390a35050565b60006040518060c0016040528084848080601f016020809104026020016040519081016040528093929190818152602001838380828437600081840152601f19601f8201169050808301925050505050505081526020013373ffffffffffffffffffffffffffffffffffffffff168152602001600073ffffffffffffffffffffffffffffffffffffffff1681526020016000815260200161012c426107bd919061184d565b815260200160001515815250908060018154018082558091505060019003906000526020600020906006020160009091909190915060008201518160000190816108079190611a52565b5060208201518160010160006101000a81548173ffffffffffffffffffffffffffffffffffffffff021916908373ffffffffffffffffffffffffffffffffffffffff16021790555060408201518160020160006101000a81548173ffffffffffffffffffffffffffffffffffffffff021916908373ffffffffffffffffffffffffffffffffffffffff160217905550606082015181600301556080820151816004015560a08201518160050160006101000a81548160ff02191690831515021790555050503373ffffffffffffffffffffffffffffffffffffffff1660016000805490506108f59190611b24565b7f52aad2ab0d4d3fde368761ee16639b32fe6b93b4c230a3b1e0ffa3224d79ff078484604051610926929190611b94565b60405180910390a35050565b6000818154811061094257600080fd5b9060005260206000209060060201600091509050806000018054610965906115f7565b80601f0160208091040260200160405190810160405280929190818152602001828054610991906115f7565b80156109de5780601f106109b3576101008083540402835291602001916109de565b820191906000526020600020905b8154815290600101906020018083116109c157829003601f168201915b5050505050908060010160009054906101000a900473ffffffffffffffffffffffffffffffffffffffff16908060020160009054906101000a900473ffffffffffffffffffffffffffffffffffffffff16908060030154908060040154908060050160009054906101000a900460ff16905086565b6000808281548110610a6857610a67611599565b5b906000526020600020906006020190508060050160009054906101000a900460ff1615610aca576040517f08c379a0000000000000000000000000000000000000000000000000000000008152600401610ac190611c04565b60405180910390fd5b8060040154421015610b11576040517f08c379a0000000000000000000000000000000000000000000000000000000008152600401610b0890611c70565b60405180910390fd5b60018160050160006101000a81548160ff021916908315150217905550600081600301541115610c115760008160010160009054906101000a900473ffffffffffffffffffffffffffffffffffffffff1673ffffffffffffffffffffffffffffffffffffffff168260030154604051610b899061179d565b60006040518083038185875af1925050503d8060008114610bc6576040519150601f19603f3d011682016040523d82523d6000602084013e610bcb565b606091505b5050905080610c0f576040517f08c379a0000000000000000000000000000000000000000000000000000000008152600401610c0690611cdc565b60405180910390fd5b505b817fd2aa34a4fdbbc6dff6a3e56f46e0f3ae2a31d7785ff3487aa5c95c642acea5018260020160009054906101000a900473ffffffffffffffffffffffffffffffffffffffff168360030154604051610c6b929190611cfc565b60405180910390a25050565b7f000000000000000000000000000000000000000000000000000000000000000081565b6000808381548110610cb057610caf611599565b5b906000526020600020906006020190508060050160009054906101000a900460ff1615610d12576040517f08c379a0000000000000000000000000000000000000000000000000000000008152600401610d0990611674565b60405180910390fd5b80600401544210610d58576040517f08c379a0000000000000000000000000000000000000000000000000000000008152600401610d4f906116e0565b60405180910390fd5b80600301548211610d9e576040517f08c379a0000000000000000000000000000000000000000000000000000000008152600401610d959061174c565b60405180910390fd5b60007f000000000000000000000000000000000000000000000000000000000000000073ffffffffffffffffffffffffffffffffffffffff166323b872dd3330866040518463ffffffff1660e01b8152600401610dfd93929190611d25565b6020604051808303816000875af1158015610e1c573d6000803e3d6000fd5b505050506040513d601f19601f82011682018060405250810190610e409190611d88565b905080610e82576040517f08c379a0000000000000000000000000000000000000000000000000000000008152600401610e7990611e01565b60405180910390fd5b600073ffffffffffffffffffffffffffffffffffffffff168260020160009054906101000a900473ffffffffffffffffffffffffffffffffffffffff1673ffffffffffffffffffffffffffffffffffffffff1614610fa2577f000000000000000000000000000000000000000000000000000000000000000073ffffffffffffffffffffffffffffffffffffffff1663a9059cbb8360020160009054906101000a900473ffffffffffffffffffffffffffffffffffffffff1684600301546040518363ffffffff1660e01b8152600401610f5d929190611cfc565b6020604051808303816000875af1158015610f7c573d6000803e3d6000fd5b505050506040513d601f19601f82011682018060405250810190610fa09190611d88565b505b338260020160006101000a81548173ffffffffffffffffffffffffffffffffffffffff021916908373ffffffffffffffffffffffffffffffffffffffff1602179055508282600301819055503373ffffffffffffffffffffffffffffffffffffffff16847f558a0d5d5468d74b0db24c74eb348b42271c2ebb4c9e953ced38aaed95fa436185604051611035919061105c565b60405180910390a350505050565b6000819050919050565b61105681611043565b82525050565b6000602082019050611071600083018461104d565b92915050565b600080fd5b600080fd5b61108a81611043565b811461109557600080fd5b50565b6000813590506110a781611081565b92915050565b6000602082840312156110c3576110c2611077565b5b60006110d184828501611098565b91505092915050565b600073ffffffffffffffffffffffffffffffffffffffff82169050919050565b6000611105826110da565b9050919050565b611115816110fa565b82525050565b6000602082019050611130600083018461110c565b92915050565b600081519050919050565b600082825260208201905092915050565b6000819050602082019050919050565b600081519050919050565b600082825260208201905092915050565b60005b8381101561119c578082015181840152602081019050611181565b60008484015250505050565b6000601f19601f8301169050919050565b60006111c482611162565b6111ce818561116d565b93506111de81856020860161117e565b6111e7816111a8565b840191505092915050565b6111fb816110fa565b82525050565b61120a81611043565b82525050565b60008115159050919050565b61122581611210565b82525050565b600060c083016000830151848203600086015261124882826111b9565b915050602083015161125d60208601826111f2565b50604083015161127060408601826111f2565b5060608301516112836060860182611201565b5060808301516112966080860182611201565b5060a08301516112a960a086018261121c565b508091505092915050565b60006112c0838361122b565b905092915050565b6000602082019050919050565b60006112e082611136565b6112ea8185611141565b9350836020820285016112fc85611152565b8060005b85811015611338578484038952815161131985826112b4565b9450611324836112c8565b925060208a01995050600181019050611300565b50829750879550505050505092915050565b6000602082019050818103600083015261136481846112d5565b905092915050565b600080fd5b600080fd5b600080fd5b60008083601f8401126113915761139061136c565b5b8235905067ffffffffffffffff8111156113ae576113ad611371565b5b6020830191508360018202830111156113ca576113c9611376565b5b9250929050565b600080602083850312156113e8576113e7611077565b5b600083013567ffffffffffffffff8111156114065761140561107c565b5b6114128582860161137b565b92509250509250929050565b600082825260208201905092915050565b600061143a82611162565b611444818561141e565b935061145481856020860161117e565b61145d816111a8565b840191505092915050565b61147181611210565b82525050565b600060c0820190508181036000830152611491818961142f565b90506114a0602083018861110c565b6114ad604083018761110c565b6114ba606083018661104d565b6114c7608083018561104d565b6114d460a0830184611468565b979650505050505050565b6000819050919050565b60006115046114ff6114fa846110da565b6114df565b6110da565b9050919050565b6000611516826114e9565b9050919050565b60006115288261150b565b9050919050565b6115388161151d565b82525050565b6000602082019050611553600083018461152f565b92915050565b600080604083850312156115705761156f611077565b5b600061157e85828601611098565b925050602061158f85828601611098565b9150509250929050565b7f4e487b7100000000000000000000000000000000000000000000000000000000600052603260045260246000fd5b7f4e487b7100000000000000000000000000000000000000000000000000000000600052602260045260246000fd5b6000600282049050600182168061160f57607f821691505b602082108103611622576116216115c8565b5b50919050565b7f41756374696f6e20656e64656400000000000000000000000000000000000000600082015250565b600061165e600d8361141e565b915061166982611628565b602082019050919050565b6000602082019050818103600083015261168d81611651565b9050919050565b7f54696d65206f7665720000000000000000000000000000000000000000000000600082015250565b60006116ca60098361141e565b91506116d582611694565b602082019050919050565b600060208201905081810360008301526116f9816116bd565b9050919050565b7f4c6f772062696400000000000000000000000000000000000000000000000000600082015250565b600061173660078361141e565b915061174182611700565b602082019050919050565b6000602082019050818103600083015261176581611729565b9050919050565b600081905092915050565b50565b600061178760008361176c565b915061179282611777565b600082019050919050565b60006117a88261177a565b9150819050919050565b7f526566756e64206661696c656400000000000000000000000000000000000000600082015250565b60006117e8600d8361141e565b91506117f3826117b2565b602082019050919050565b60006020820190508181036000830152611817816117db565b9050919050565b7f4e487b7100000000000000000000000000000000000000000000000000000000600052601160045260246000fd5b600061185882611043565b915061186383611043565b925082820190508082111561187b5761187a61181e565b5b92915050565b7f4e487b7100000000000000000000000000000000000000000000000000000000600052604160045260246000fd5b60008190508160005260206000209050919050565b60006020601f8301049050919050565b600082821b905092915050565b6000600883026119127fffffffffffffffffffffffffffffffffffffffffffffffffffffffffffffffff826118d5565b61191c86836118d5565b95508019841693508086168417925050509392505050565b600061194f61194a61194584611043565b6114df565b611043565b9050919050565b6000819050919050565b61196983611934565b61197d61197582611956565b8484546118e2565b825550505050565b600090565b611992611985565b61199d818484611960565b505050565b5b818110156119c1576119b660008261198a565b6001810190506119a3565b5050565b601f821115611a06576119d7816118b0565b6119e0846118c5565b810160208510156119ef578190505b611a036119fb856118c5565b8301826119a2565b50505b505050565b600082821c905092915050565b6000611a2960001984600802611a0b565b1980831691505092915050565b6000611a428383611a18565b9150826002028217905092915050565b611a5b82611162565b67ffffffffffffffff811115611a7457611a73611881565b5b611a7e82546115f7565b611a898282856119c5565b600060209050601f831160018114611abc5760008415611aaa578287015190505b611ab48582611a36565b865550611b1c565b601f198416611aca866118b0565b60005b82811015611af257848901518255600182019150602085019450602081019050611acd565b86831015611b0f5784890151611b0b601f891682611a18565b8355505b6001600288020188555050505b505050505050565b6000611b2f82611043565b9150611b3a83611043565b9250828203905081811115611b5257611b5161181e565b5b92915050565b82818337600083830152505050565b6000611b73838561141e565b9350611b80838584611b58565b611b89836111a8565b840190509392505050565b60006020820190508181036000830152611baf818486611b67565b90509392505050565b7f416c726561647920656e64656400000000000000000000000000000000000000600082015250565b6000611bee600d8361141e565b9150611bf982611bb8565b602082019050919050565b60006020820190508181036000830152611c1d81611be1565b9050919050565b7f41756374696f6e207374696c6c20616374697665000000000000000000000000600082015250565b6000611c5a60148361141e565b9150611c6582611c24565b602082019050919050565b60006020820190508181036000830152611c8981611c4d565b9050919050565b7f5061796d656e74206661696c6564000000000000000000000000000000000000600082015250565b6000611cc6600e8361141e565b9150611cd182611c90565b602082019050919050565b60006020820190508181036000830152611cf581611cb9565b9050919050565b6000604082019050611d11600083018561110c565b611d1e602083018461104d565b9392505050565b6000606082019050611d3a600083018661110c565b611d47602083018561110c565b611d54604083018461104d565b949350505050565b611d6581611210565b8114611d7057600080fd5b50565b600081519050611d8281611d5c565b92915050565b600060208284031215611d9e57611d9d611077565b5b6000611dac84828501611d73565b91505092915050565b7f5472616e73666572206661696c65640000000000000000000000000000000000600082015250565b6000611deb600f8361141e565b9150611df682611db5565b602082019050919050565b60006020820190508181036000830152611e1a81611dde565b905091905056fea264697066735822122025631b7b6e357e4a1b31f9121e81e8ea927ac8fc4100968c77bcd5f3e73310ca64736f6c634300081c0033",
  "linkReferences": {},
  "deployedLinkReferences": {}
}