{
  "_format": "hh-sol-artifact-1",
  "contractName": "MockERC20",
  "sourceName": "contracts/MockERC20.sol",
  "abi": [
    {
      "inputs": [
        {
          "internalType": "uint256",
          "name": "initialSupply",
          "type": "uint256"
        }
      ],
      "stateMutability": "nonpayable",
      "type": "constructor"
    },
    {
      "inputs": [
        {
          "internalType": "address",
          "name": "",
          "type": "address"
        },
        {
          "internalType": "address",
          "name": "",
          "type": "address"
        }
      ],
      "name": "allowance",
      "outputs": [
        {
          "internalType": "uint256",
          "name": "",
          "type": "uint256"
        }
      ],
      "stateMutability": "view",
      "type": "function"
    },
    {
      "inputs": [
        {
          "internalType": "address",
          "name": "spender",
          "type": "address"
        },
        {
          "internalType": "uint256",
          "name": "amount",
          "type": "uint256"
        }
      ],
      "name": "approve",
      "outputs": [
        {
          "internalType": "bool",
          "name": "",
          "type": "bool"
        }
      ],
      "stateMutability": "nonpayable",
      "type": "function"
    },
    {
      "inputs": [
        {
          "internalType": "address",
          "name": "",
          "type": "address"
        }
      ],
      "name": "balanceOf",
      "outputs": [
        {
          "internalType": "uint256",
          "name": "",
          "type": "uint256"
        }
      ],
      "stateMutability": "view",
      "type": "function"
    },
    {
      "inputs": [],
      "name": "decimals",
      "outputs": [
        {
          "internalType": "uint8",
          "name": "",
          "type": "uint8"
        }
      ],
      "stateMutability": "view",
      "type": "function"
    },
    {
      "inputs": [
        {
          "internalType": "address",
          "name": "to",
          "type": "address"
        },
        {
          "internalType": "uint256",
          "name": "amount",
          "type": "uint256"
        }
      ],
      "name": "mint",
      "outputs": [],
      "stateMutability": "nonpayable",
      "type": "function"
    },
    {
      "inputs": [],
      "name": "name",
      "outputs": [
        {
          "internalType": "string",
          "name": "",
          "type": "string"
        }
      ],
      "stateMutability": "view",
      "type": "function"
    },
    {
      "inputs": [],
      "name": "symbol",
      "outputs": [
        {
          "internalType": "string",
          "name": "",
          "type": "string"
        }
      ],
      "stateMutability": "view",
      "type": "function"
    },
    {
      "inputs": [],
      "name": "totalSupply",
      "outputs": [
        {
          "internalType": "uint256",
          "name": "",
          "type": "uint256"
        }
      ],
      "stateMutability": "view",
      "type": "function"
    },
    {
      "inputs": [
        {
          "internalType": "address",
          "name": "to",
          "type": "address"
        },
        {
          "internalType": "uint256",
          "name": "amount",
          "type": "uint256"
        }
      ],
      "name": "transfer",
      "outputs": [
        {
          "internalType": "bool",
          "name": "",
          "type": "bool"
        }
      ],
      "stateMutability": "nonpayable",
      "type": "function"
    },
    {
      "inputs": [
        {
          "internalType": "address",
          "name": "from",
          "type": "address"
        },
        {
          "internalType": "address",
          "name": "to",
          "type": "address"
        },
        {
          "internalType": "uint256",
          "name": "amount",
          "type": "uint256"
        }
      ],
      "name": "transferFrom",
      "outputs": [
        {
          "internalType": "bool",
          "name": "",
          "type": "bool"
        }
      ],
      "stateMutability": "nonpayable",
      "type": "function"
    }
  ],
  "bytecode": "0x60806040526040518060400160405280600981526020017f4d6f636b546f6b656e00000000000000000000000000000000000000000000008152506000908161004891906103b1565b506040518060400160405280600381526020017f4d544b00000000000000000000000000000000000000000000000000000000008152506001908161008d91906103b1565b506012600260006101000a81548160ff021916908360ff1602179055503480156100b657600080fd5b5060405161129a38038061129a83398181016040528101906100d891906104b4565b6100e833826100ee60201b60201c565b50610544565b80600460008473ffffffffffffffffffffffffffffffffffffffff1673ffffffffffffffffffffffffffffffffffffffff168152602001908152602001600020600082825461013d9190610510565b9250508190555080600360008282546101569190610510565b925050819055505050565b600081519050919050565b7f4e487b7100000000000000000000000000000000000000000000000000000000600052604160045260246000fd5b7f4e487b7100000000000000000000000000000000000000000000000000000000600052602260045260246000fd5b600060028204905060018216806101e257607f821691505b6020821081036101f5576101f461019b565b5b50919050565b60008190508160005260206000209050919050565b60006020601f8301049050919050565b600082821b905092915050565b60006008830261025d7fffffffffffffffffffffffffffffffffffffffffffffffffffffffffffffffff82610220565b6102678683610220565b95508019841693508086168417925050509392505050565b6000819050919050565b6000819050919050565b60006102ae6102a96102a48461027f565b610289565b61027f565b9050919050565b6000819050919050565b6102c883610293565b6102dc6102d4826102b5565b84845461022d565b825550505050565b600090565b6102f16102e4565b6102fc8184846102bf565b505050565b5b81811015610320576103156000826102e9565b600181019050610302565b5050565b601f82111561036557610336816101fb565b61033f84610210565b8101602085101561034e578190505b61036261035a85610210565b830182610301565b50505b505050565b600082821c905092915050565b60006103886000198460080261036a565b1980831691505092915050565b60006103a18383610377565b9150826002028217905092915050565b6103ba82610161565b67ffffffffffffffff8111156103d3576103d261016c565b5b6103dd82546101ca565b6103e8828285610324565b600060209050601f83116001811461041b5760008415610409578287015190505b6104138582610395565b86555061047b565b601f198416610429866101fb565b60005b828110156104515784890151825560018201915060208501945060208101905061042c565b8683101561046e578489015161046a601f891682610377565b8355505b6001600288020188555050505b505050505050565b600080fd5b6104918161027f565b811461049c57600080fd5b50565b6000815190506104ae81610488565b92915050565b6000602082840312156104ca576104c9610483565b5b60006104d88482850161049f565b91505092915050565b7f4e487b7100000000000000000000000000000000000000000000000000000000600052601160045260246000fd5b600061051b8261027f565b91506105268361027f565b925082820190508082111561053e5761053d6104e1565b5b92915050565b610d47806105536000396000f3fe608060405234801561001057600080fd5b506004361061009e5760003560e01c806340c10f191161006657806340c10f191461015d57806370a082311461017957806395d89b41146101a9578063a9059cbb146101c7578063dd62ed3e146101f75761009e565b806306fdde03146100a3578063095ea7b3146100c157806318160ddd146100f157806323b872dd1461010f578063313ce5671461013f575b600080fd5b6100ab610227565b6040516100b891906108f0565b60405180910390f35b6100db60048036038101906100d691906109ab565b6102b5565b6040516100e89190610a06565b60405180910390f35b6100f9610342565b6040516101069190610a30565b60405180910390f35b61012960048036038101906101249190610a4b565b610348565b6040516101369190610a06565b60405180910390f35b6101476105d5565b6040516101549190610aba565b60405180910390f35b610177600480360381019061017291906109ab565b6105e8565b005b610193600480360381019061018e9190610ad5565b61065b565b6040516101a09190610a30565b60405180910390f35b6101b1610673565b6040516101be91906108f0565b60405180910390f35b6101e160048036038101906101dc91906109ab565b610701565b6040516101ee9190610a06565b60405180910390f35b610211600480360381019061020c9190610b02565b61083b565b60405161021e9190610a30565b60405180910390f35b6000805461023490610b71565b80601f016020809104026020016040519081016040528092919081815260200182805461026090610b71565b80156102ad5780601f10610282576101008083540402835291602001916102ad565b820191906000526020600020905b81548152906001019060200180831161029057829003601f168201915b505050505081565b600081600560003373ffffffffffffffffffffffffffffffffffffffff1673ffffffffffffffffffffffffffffffffffffffff16815260200190815260200160002060008573ffffffffffffffffffffffffffffffffffffffff1673ffffffffffffffffffffffffffffffffffffffff168152602001908152602001600020819055506001905092915050565b60035481565b600081600560008673ffffffffffffffffffffffffffffffffffffffff1673ffffffffffffffffffffffffffffffffffffffff16815260200190815260200160002060003373ffffffffffffffffffffffffffffffffffffffff1673ffffffffffffffffffffffffffffffffffffffff168152602001908152602001600020541015610409576040517f08c379a000000000000000000000000000000000000000000000000000000000815260040161040090610bee565b60405180910390fd5b81600460008673ffffffffffffffffffffffffffffffffffffffff1673ffffffffffffffffffffffffffffffffffffffff16815260200190815260200160002054101561048b576040517f08c379a000000000000000000000000000000000000000000000000000000000815260040161048290610c5a565b60405180910390fd5b81600560008673ffffffffffffffffffffffffffffffffffffffff1673ffffffffffffffffffffffffffffffffffffffff16815260200190815260200160002060003373ffffffffffffffffffffffffffffffffffffffff1673ffffffffffffffffffffffffffffffffffffffff16815260200190815260200160002060008282546105179190610ca9565b9250508190555081600460008673ffffffffffffffffffffffffffffffffffffffff1673ffffffffffffffffffffffffffffffffffffffff168152602001908152602001600020600082825461056d9190610ca9565b9250508190555081600460008573ffffffffffffffffffffffffffffffffffffffff1673ffffffffffffffffffffffffffffffffffffffff16815260200190815260200160002060008282546105c39190610cdd565b92505081905550600190509392505050565b600260009054906101000a900460ff1681565b80600460008473ffffffffffffffffffffffffffffffffffffffff1673ffffffffffffffffffffffffffffffffffffffff16815260200190815260200160002060008282546106379190610cdd565b9250508190555080600360008282546106509190610cdd565b925050819055505050565b60046020528060005260406000206000915090505481565b6001805461068090610b71565b80601f01602080910402602001604051908101604052809291908181526020018280546106ac90610b71565b80156106f95780601f106106ce576101008083540402835291602001916106f9565b820191906000526020600020905b8154815290600101906020018083116106dc57829003601f168201915b505050505081565b600081600460003373ffffffffffffffffffffffffffffffffffffffff1673ffffffffffffffffffffffffffffffffffffffff168152602001908152602001600020541015610785576040517f08c379a000000000000000000000000000000000000000000000000000000000815260040161077c90610c5a565b60405180910390fd5b81600460003373ffffffffffffffffffffffffffffffffffffffff1673ffffffffffffffffffffffffffffffffffffffff16815260200190815260200160002060008282546107d49190610ca9565b9250508190555081600460008573ffffffffffffffffffffffffffffffffffffffff1673ffffffffffffffffffffffffffffffffffffffff168152602001908152602001600020600082825461082a9190610cdd565b925050819055506001905092915050565b6005602052816000526040600020602052806000526040600020600091509150505481565b600081519050919050565b600082825260208201905092915050565b60005b8381101561089a57808201518184015260208101905061087f565b60008484015250505050565b6000601f19601f8301169050919050565b60006108c282610860565b6108cc818561086b565b93506108dc81856020860161087c565b6108e5816108a6565b840191505092915050565b6000602082019050818103600083015261090a81846108b7565b905092915050565b600080fd5b600073ffffffffffffffffffffffffffffffffffffffff82169050919050565b600061094282610917565b9050919050565b61095281610937565b811461095d57600080fd5b50565b60008135905061096f81610949565b92915050565b6000819050919050565b61098881610975565b811461099357600080fd5b50565b6000813590506109a58161097f565b92915050565b600080604083850312156109c2576109c1610912565b5b60006109d085828601610960565b92505060206109e185828601610996565b9150509250929050565b60008115159050919050565b610a00816109eb565b82525050565b6000602082019050610a1b60008301846109f7565b92915050565b610a2a81610975565b82525050565b6000602082019050610a456000830184610a21565b92915050565b600080600060608486031215610a6457610a63610912565b5b6000610a7286828701610960565b9350506020610a8386828701610960565b9250506040610a9486828701610996565b9150509250925092565b600060ff82169050919050565b610ab481610a9e565b82525050565b6000602082019050610acf6000830184610aab565b92915050565b600060208284031215610aeb57610aea610912565b5b6000610af984828501610960565b91505092915050565b60008060408385031215610b1957610b18610912565b5b6000610b2785828601610960565b9250506020610b3885828601610960565b9150509250929050565b7f4e487b7100000000000000000000000000000000000000000000000000000000600052602260045260246000fd5b60006002820490506001821680610b8957607f821691505b602082108103610b9c57610b9b610b42565b5b50919050565b7f496e73756666696369656e7420616c6c6f77616e636500000000000000000000600082015250565b6000610bd860168361086b565b9150610be382610ba2565b602082019050919050565b60006020820190508181036000830152610c0781610bcb565b9050919050565b7f496e73756666696369656e742062616c616e6365000000000000000000000000600082015250565b6000610c4460148361086b565b9150610c4f82610c0e565b602082019050919050565b60006020820190508181036000830152610c7381610c37565b9050919050565b7f4e487b7100000000000000000000000000000000000000000000000000000000600052601160045260246000fd5b6000610cb482610975565b9150610cbf83610975565b9250828203905081811115610cd757610cd6610c7a565b5b92915050565b6000610ce882610975565b9150610cf383610975565b9250828201905080821115610d0b57610d0a610c7a565b5b9291505056fea2646970667358221220c102710c062d3d32e14d7b2719283e47e4412e68f45d64e2eae5cb87649dca7164736f6c634300081c0033",
  "linkReferences": {},
  "deployedLinkReferences": {}
}